{
  "contractName": "HashTimeLock",
  "abi": [
    {
      "constant": true,
      "inputs": [
        {
          "name": "",
          "type": "bytes32"
        }
      ],
      "name": "contracts",
      "outputs": [
        {
          "name": "inputAmount",
          "type": "uint256"
        },
        {
          "name": "outputAmount",
          "type": "uint256"
        },
        {
          "name": "expiration",
          "type": "uint256"
        },
        {
          "name": "hashLock",
          "type": "bytes32"
        },
        {
          "name": "status",
          "type": "uint8"
        },
        {
          "name": "sender",
          "type": "address"
        },
        {
          "name": "receiver",
          "type": "address"
        },
        {
          "name": "outputNetwork",
          "type": "string"
        },
        {
          "name": "outputAddress",
          "type": "string"
        }
      ],
      "payable": false,
      "stateMutability": "view",
      "type": "function"
    },
    {
      "anonymous": false,
      "inputs": [
        {
          "indexed": true,
          "name": "id",
          "type": "bytes32"
        },
        {
          "indexed": false,
          "name": "secret",
          "type": "bytes32"
        },
        {
          "indexed": false,
          "name": "hashLock",
          "type": "bytes32"
        },
        {
          "indexed": true,
          "name": "sender",
          "type": "address"
        },
        {
          "indexed": true,
          "name": "receiver",
          "type": "address"
        }
      ],
      "name": "Withdraw",
      "type": "event"
    },
    {
      "anonymous": false,
      "inputs": [
        {
          "indexed": true,
          "name": "id",
          "type": "bytes32"
        },
        {
          "indexed": false,
          "name": "hashLock",
          "type": "bytes32"
        },
        {
          "indexed": true,
          "name": "sender",
          "type": "address"
        },
        {
          "indexed": true,
          "name": "receiver",
          "type": "address"
        }
      ],
      "name": "Refund",
      "type": "event"
    },
    {
      "anonymous": false,
      "inputs": [
        {
          "indexed": false,
          "name": "inputAmount",
          "type": "uint256"
        },
        {
          "indexed": false,
          "name": "outputAmount",
          "type": "uint256"
        },
        {
          "indexed": false,
          "name": "expiration",
          "type": "uint256"
        },
        {
          "indexed": true,
          "name": "id",
          "type": "bytes32"
        },
        {
          "indexed": false,
          "name": "hashLock",
          "type": "bytes32"
        },
        {
          "indexed": true,
          "name": "sender",
          "type": "address"
        },
        {
          "indexed": true,
          "name": "receiver",
          "type": "address"
        },
        {
          "indexed": false,
          "name": "outputNetwork",
          "type": "string"
        },
        {
          "indexed": false,
          "name": "outputAddress",
          "type": "string"
        }
      ],
      "name": "NewContract",
      "type": "event"
    },
    {
      "constant": false,
      "inputs": [
        {
          "name": "outputAmount",
          "type": "uint256"
        },
        {
          "name": "expiration",
          "type": "uint256"
        },
        {
          "name": "hashLock",
          "type": "bytes32"
        },
        {
          "name": "receiver",
          "type": "address"
        },
        {
          "name": "outputNetwork",
          "type": "string"
        },
        {
          "name": "outputAddress",
          "type": "string"
        }
      ],
      "name": "newContract",
      "outputs": [],
      "payable": true,
      "stateMutability": "payable",
      "type": "function"
    },
    {
      "constant": false,
      "inputs": [
        {
          "name": "id",
          "type": "bytes32"
        },
        {
          "name": "secret",
          "type": "bytes32"
        }
      ],
      "name": "withdraw",
      "outputs": [
        {
          "name": "",
          "type": "bool"
        }
      ],
      "payable": false,
      "stateMutability": "nonpayable",
      "type": "function"
    },
    {
      "constant": false,
      "inputs": [
        {
          "name": "id",
          "type": "bytes32"
        }
      ],
      "name": "refund",
      "outputs": [
        {
          "name": "",
          "type": "bool"
        }
      ],
      "payable": false,
      "stateMutability": "nonpayable",
      "type": "function"
    },
    {
      "constant": true,
      "inputs": [
        {
          "name": "id",
          "type": "bytes32"
        }
      ],
      "name": "getContract",
      "outputs": [
        {
          "components": [
            {
              "name": "inputAmount",
              "type": "uint256"
            },
            {
              "name": "outputAmount",
              "type": "uint256"
            },
            {
              "name": "expiration",
              "type": "uint256"
            },
            {
              "name": "hashLock",
              "type": "bytes32"
            },
            {
              "name": "status",
              "type": "uint8"
            },
            {
              "name": "sender",
              "type": "address"
            },
            {
              "name": "receiver",
              "type": "address"
            },
            {
              "name": "outputNetwork",
              "type": "string"
            },
            {
              "name": "outputAddress",
              "type": "string"
            }
          ],
          "name": "",
          "type": "tuple"
        }
      ],
      "payable": false,
      "stateMutability": "view",
      "type": "function"
    },
    {
      "constant": true,
      "inputs": [
        {
          "name": "id",
          "type": "bytes32"
        }
      ],
      "name": "contractExists",
      "outputs": [
        {
          "name": "",
          "type": "bool"
        }
      ],
      "payable": false,
      "stateMutability": "view",
      "type": "function"
    },
    {
      "constant": true,
      "inputs": [
        {
          "name": "ids",
          "type": "bytes32[]"
        }
      ],
      "name": "getStatus",
      "outputs": [
        {
          "name": "",
          "type": "uint8[]"
        }
      ],
      "payable": false,
      "stateMutability": "view",
      "type": "function"
    },
    {
      "constant": true,
      "inputs": [
        {
          "name": "id",
          "type": "bytes32"
        }
      ],
      "name": "getStatus",
      "outputs": [
        {
          "name": "result",
          "type": "uint8"
        }
      ],
      "payable": false,
      "stateMutability": "view",
      "type": "function"
    }
  ],
  "bytecode": "0x608060405234801561001057600080fd5b50612427806100206000396000f3fe60806040526004361061008e576000357c0100000000000000000000000000000000000000000000000000000000900463ffffffff1680632f21a663146100935780635de28ae0146100d0578063636151491461010d5780636c8244b81461014a5780637249fbb614610187578063d3632095146101c4578063e16c7d98146101e0578063ec56a3731461021d575b600080fd5b34801561009f57600080fd5b506100ba60048036036100b59190810190611b41565b610262565b6040516100c79190611fc9565b60405180910390f35b3480156100dc57600080fd5b506100f760048036036100f29190810190611b82565b610302565b6040516101049190612216565b60405180910390f35b34801561011957600080fd5b50610134600480360361012f9190810190611bd4565b6105d0565b6040516101419190611feb565b60405180910390f35b34801561015657600080fd5b50610171600480360361016c9190810190611b82565b610b59565b60405161017e9190611feb565b60405180910390f35b34801561019357600080fd5b506101ae60048036036101a99190810190611b82565b610b9e565b6040516101bb9190611feb565b60405180910390f35b6101de60048036036101d99190810190611c10565b611094565b005b3480156101ec57600080fd5b5061020760048036036102029190810190611b82565b6114a0565b60405161021491906120ea565b60405180910390f35b34801561022957600080fd5b50610244600480360361023f9190810190611b82565b61171f565b6040516102599998979695949392919061210c565b60405180910390f35b60608082516040519080825280602002602001820160405280156102955781602001602082028038833980820191505090505b50905060008090505b83518110156102f8576102c784828151811015156102b857fe5b90602001906020020151610302565b82828151811015156102d557fe5b9060200190602002019060ff16908160ff1681525050808060010191505061029e565b5080915050919050565b600061030c6118ea565b6000808481526020019081526020016000206101206040519081016040529081600082015481526020016001820154815260200160028201548152602001600382015481526020016004820160009054906101000a900460ff16600481111561037157fe5b600481111561037c57fe5b81526020016004820160019054906101000a900473ffffffffffffffffffffffffffffffffffffffff1673ffffffffffffffffffffffffffffffffffffffff1673ffffffffffffffffffffffffffffffffffffffff1681526020016005820160009054906101000a900473ffffffffffffffffffffffffffffffffffffffff1673ffffffffffffffffffffffffffffffffffffffff1673ffffffffffffffffffffffffffffffffffffffff168152602001600682018054600181600116156101000203166002900480601f0160208091040260200160405190810160405280929190818152602001828054600181600116156101000203166002900480156104c55780601f1061049a576101008083540402835291602001916104c5565b820191906000526020600020905b8154815290600101906020018083116104a857829003601f168201915b50505050508152602001600782018054600181600116156101000203166002900480601f0160208091040260200160405190810160405280929190818152602001828054600181600116156101000203166002900480156105675780601f1061053c57610100808354040283529160200191610567565b820191906000526020600020905b81548152906001019060200180831161054a57829003601f168201915b50505050508152505090506001600481111561057f57fe5b8160800151600481111561058f57fe5b14801561059f5750428160400151105b156105b7576004808111156105b057fe5b91506105ca565b806080015160048111156105c757fe5b91505b50919050565b600082826105dc6118ea565b6000808481526020019081526020016000206101206040519081016040529081600082015481526020016001820154815260200160028201548152602001600382015481526020016004820160009054906101000a900460ff16600481111561064157fe5b600481111561064c57fe5b81526020016004820160019054906101000a900473ffffffffffffffffffffffffffffffffffffffff1673ffffffffffffffffffffffffffffffffffffffff1673ffffffffffffffffffffffffffffffffffffffff1681526020016005820160009054906101000a900473ffffffffffffffffffffffffffffffffffffffff1673ffffffffffffffffffffffffffffffffffffffff1673ffffffffffffffffffffffffffffffffffffffff168152602001600682018054600181600116156101000203166002900480601f0160208091040260200160405190810160405280929190818152602001828054600181600116156101000203166002900480156107955780601f1061076a57610100808354040283529160200191610795565b820191906000526020600020905b81548152906001019060200180831161077857829003601f168201915b50505050508152602001600782018054600181600116156101000203166002900480601f0160208091040260200160405190810160405280929190818152602001828054600181600116156101000203166002900480156108375780601f1061080c57610100808354040283529160200191610837565b820191906000526020600020905b81548152906001019060200180831161081a57829003601f168201915b50505050508152505090506001600481111561084f57fe5b8160800151600481111561085f57fe5b1415156108a1576040517f08c379a00000000000000000000000000000000000000000000000000000000081526004016108989061206a565b60405180910390fd5b4281604001511115156108e9576040517f08c379a00000000000000000000000000000000000000000000000000000000081526004016108e09061208a565b60405180910390fd5b600282604051602001808281526020019150506040516020818303038152906040526040518082805190602001908083835b602083101515610940578051825260208201915060208101905060208303925061091b565b6001836020036101000a038019825116818451168082178552505050505050905001915050602060405180830381855afa158015610982573d6000803e3d6000fd5b5050506040513d601f19601f820116820180604052506109a59190810190611bab565b81606001511415156109ec576040517f08c379a00000000000000000000000000000000000000000000000000000000081526004016109e39061204a565b60405180910390fd5b6000806000888152602001908152602001600020905060038160040160006101000a81548160ff02191690836004811115610a2357fe5b02179055508060050160009054906101000a900473ffffffffffffffffffffffffffffffffffffffff1673ffffffffffffffffffffffffffffffffffffffff166108fc82600001549081150290604051600060405180830381858888f19350505050158015610a96573d6000803e3d6000fd5b508060050160009054906101000a900473ffffffffffffffffffffffffffffffffffffffff1673ffffffffffffffffffffffffffffffffffffffff168160040160019054906101000a900473ffffffffffffffffffffffffffffffffffffffff1673ffffffffffffffffffffffffffffffffffffffff16887f2d3a5ed13d0553389b4078e01264416362e34d23520fda797fbc17f3905ed131898560030154604051610b43929190612021565b60405180910390a4600194505050505092915050565b6000806004811115610b6757fe5b60008084815260200190815260200160002060040160009054906101000a900460ff166004811115610b9557fe5b14159050919050565b600081610ba96118ea565b6000808381526020019081526020016000206101206040519081016040529081600082015481526020016001820154815260200160028201548152602001600382015481526020016004820160009054906101000a900460ff166004811115610c0e57fe5b6004811115610c1957fe5b81526020016004820160019054906101000a900473ffffffffffffffffffffffffffffffffffffffff1673ffffffffffffffffffffffffffffffffffffffff1673ffffffffffffffffffffffffffffffffffffffff1681526020016005820160009054906101000a900473ffffffffffffffffffffffffffffffffffffffff1673ffffffffffffffffffffffffffffffffffffffff1673ffffffffffffffffffffffffffffffffffffffff168152602001600682018054600181600116156101000203166002900480601f016020809104026020016040519081016040528092919081815260200182805460018160011615610100020316600290048015610d625780601f10610d3757610100808354040283529160200191610d62565b820191906000526020600020905b815481529060010190602001808311610d4557829003601f168201915b50505050508152602001600782018054600181600116156101000203166002900480601f016020809104026020016040519081016040528092919081815260200182805460018160011615610100020316600290048015610e045780601f10610dd957610100808354040283529160200191610e04565b820191906000526020600020905b815481529060010190602001808311610de757829003601f168201915b505050505081525050905060016004811115610e1c57fe5b81608001516004811115610e2c57fe5b141515610e6e576040517f08c379a0000000000000000000000000000000000000000000000000000000008152600401610e659061206a565b60405180910390fd5b42816040015111151515610eb7576040517f08c379a0000000000000000000000000000000000000000000000000000000008152600401610eae9061208a565b60405180910390fd5b3373ffffffffffffffffffffffffffffffffffffffff168160a0015173ffffffffffffffffffffffffffffffffffffffff16141515610f2b576040517f08c379a0000000000000000000000000000000000000000000000000000000008152600401610f22906120aa565b60405180910390fd5b6000806000868152602001908152602001600020905060028160040160006101000a81548160ff02191690836004811115610f6257fe5b02179055508060040160019054906101000a900473ffffffffffffffffffffffffffffffffffffffff1673ffffffffffffffffffffffffffffffffffffffff166108fc82600001549081150290604051600060405180830381858888f19350505050158015610fd5573d6000803e3d6000fd5b508060050160009054906101000a900473ffffffffffffffffffffffffffffffffffffffff1673ffffffffffffffffffffffffffffffffffffffff168160040160019054906101000a900473ffffffffffffffffffffffffffffffffffffffff1673ffffffffffffffffffffffffffffffffffffffff16867f6fa50d56c31f3efe0cb6ff06232bffce8fe8c4155e3cbb6f2d79dd12631c252284600301546040516110809190612006565b60405180910390a460019350505050919050565b6000339050600034905042871115156110e2576040517f08c379a00000000000000000000000000000000000000000000000000000000081526004016110d99061208a565b60405180910390fd5b600081111515611127576040517f08c379a000000000000000000000000000000000000000000000000000000000815260040161111e906120ca565b60405180910390fd5b600060028387848a8c604051602001808673ffffffffffffffffffffffffffffffffffffffff1673ffffffffffffffffffffffffffffffffffffffff166c010000000000000000000000000281526014018573ffffffffffffffffffffffffffffffffffffffff1673ffffffffffffffffffffffffffffffffffffffff166c01000000000000000000000000028152601401848152602001838152602001828152602001955050505050506040516020818303038152906040526040518082805190602001908083835b60208310151561121657805182526020820191506020810190506020830392506111f1565b6001836020036101000a038019825116818451168082178552505050505050905001915050602060405180830381855afa158015611258573d6000803e3d6000fd5b5050506040513d601f19601f8201168201806040525061127b9190810190611bab565b9050610120604051908101604052808381526020018a8152602001898152602001888152602001600160048111156112af57fe5b81526020018473ffffffffffffffffffffffffffffffffffffffff1681526020018773ffffffffffffffffffffffffffffffffffffffff168152602001868152602001858152506000808381526020019081526020016000206000820151816000015560208201518160010155604082015181600201556060820151816003015560808201518160040160006101000a81548160ff0219169083600481111561135457fe5b021790555060a08201518160040160016101000a81548173ffffffffffffffffffffffffffffffffffffffff021916908373ffffffffffffffffffffffffffffffffffffffff16021790555060c08201518160050160006101000a81548173ffffffffffffffffffffffffffffffffffffffff021916908373ffffffffffffffffffffffffffffffffffffffff16021790555060e0820151816006019080519060200190611403929190611971565b50610100820151816007019080519060200190611421929190611971565b509050508573ffffffffffffffffffffffffffffffffffffffff168373ffffffffffffffffffffffffffffffffffffffff16827f767d0ffbc3d16cc51fc05770a22976e4b0fda9198e37878b76979429b2d5d88c858d8d8d8c8c60405161148d969594939291906121a7565b60405180910390a4505050505050505050565b6114a86118ea565b6114b06118ea565b6000808481526020019081526020016000206101206040519081016040529081600082015481526020016001820154815260200160028201548152602001600382015481526020016004820160009054906101000a900460ff16600481111561151557fe5b600481111561152057fe5b81526020016004820160019054906101000a900473ffffffffffffffffffffffffffffffffffffffff1673ffffffffffffffffffffffffffffffffffffffff1673ffffffffffffffffffffffffffffffffffffffff1681526020016005820160009054906101000a900473ffffffffffffffffffffffffffffffffffffffff1673ffffffffffffffffffffffffffffffffffffffff1673ffffffffffffffffffffffffffffffffffffffff168152602001600682018054600181600116156101000203166002900480601f0160208091040260200160405190810160405280929190818152602001828054600181600116156101000203166002900480156116695780601f1061163e57610100808354040283529160200191611669565b820191906000526020600020905b81548152906001019060200180831161164c57829003601f168201915b50505050508152602001600782018054600181600116156101000203166002900480601f01602080910402602001604051908101604052809291908181526020018280546001816001161561010002031660029004801561170b5780601f106116e05761010080835404028352916020019161170b565b820191906000526020600020905b8154815290600101906020018083116116ee57829003601f168201915b505050505081525050905080915050919050565b60006020528060005260406000206000915090508060000154908060010154908060020154908060030154908060040160009054906101000a900460ff16908060040160019054906101000a900473ffffffffffffffffffffffffffffffffffffffff16908060050160009054906101000a900473ffffffffffffffffffffffffffffffffffffffff1690806006018054600181600116156101000203166002900480601f0160208091040260200160405190810160405280929190818152602001828054600181600116156101000203166002900480156118425780601f1061181757610100808354040283529160200191611842565b820191906000526020600020905b81548152906001019060200180831161182557829003601f168201915b505050505090806007018054600181600116156101000203166002900480601f0160208091040260200160405190810160405280929190818152602001828054600181600116156101000203166002900480156118e05780601f106118b5576101008083540402835291602001916118e0565b820191906000526020600020905b8154815290600101906020018083116118c357829003601f168201915b5050505050905089565b61012060405190810160405280600081526020016000815260200160008152602001600080191681526020016000600481111561192357fe5b8152602001600073ffffffffffffffffffffffffffffffffffffffff168152602001600073ffffffffffffffffffffffffffffffffffffffff16815260200160608152602001606081525090565b828054600181600116156101000203166002900490600052602060002090601f016020900481019282601f106119b257805160ff19168380011785556119e0565b828001600101855582156119e0579182015b828111156119df5782518255916020019190600101906119c4565b5b5090506119ed91906119f1565b5090565b611a1391905b80821115611a0f5760008160009055506001016119f7565b5090565b90565b6000611a228235612362565b905092915050565b600082601f8301121515611a3d57600080fd5b8135611a50611a4b8261225e565b612231565b91508181835260208401935060208101905083856020840282011115611a7557600080fd5b60005b83811015611aa55781611a8b8882611aaf565b845260208401935060208301925050600181019050611a78565b5050505092915050565b6000611abb8235612374565b905092915050565b6000611acf8251612374565b905092915050565b600082601f8301121515611aea57600080fd5b8135611afd611af882612286565b612231565b91508082526020830160208301858383011115611b1957600080fd5b611b2483828461239a565b50505092915050565b6000611b39823561237e565b905092915050565b600060208284031215611b5357600080fd5b600082013567ffffffffffffffff811115611b6d57600080fd5b611b7984828501611a2a565b91505092915050565b600060208284031215611b9457600080fd5b6000611ba284828501611aaf565b91505092915050565b600060208284031215611bbd57600080fd5b6000611bcb84828501611ac3565b91505092915050565b60008060408385031215611be757600080fd5b6000611bf585828601611aaf565b9250506020611c0685828601611aaf565b9150509250929050565b60008060008060008060c08789031215611c2957600080fd5b6000611c3789828a01611b2d565b9650506020611c4889828a01611b2d565b9550506040611c5989828a01611aaf565b9450506060611c6a89828a01611a16565b935050608087013567ffffffffffffffff811115611c8757600080fd5b611c9389828a01611ad7565b92505060a087013567ffffffffffffffff811115611cb057600080fd5b611cbc89828a01611ad7565b9150509295509295509295565b611cd2816122ed565b82525050565b6000611ce3826122bf565b808452602084019350611cf5836122b2565b60005b82811015611d2757611d0b868351611fba565b611d14826122e0565b9150602086019550600181019050611cf8565b50849250505092915050565b611d3c816122ff565b82525050565b611d4b8161230b565b82525050565b611d5a81612388565b82525050565b6000611d6b826122d5565b808452611d7f8160208601602086016123a9565b611d88816123dc565b602085010191505092915050565b6000611da1826122ca565b808452611db58160208601602086016123a9565b611dbe816123dc565b602085010191505092915050565b6000600e82527f494e56414c49445f5345435245540000000000000000000000000000000000006020830152604082019050919050565b6000600f82527f535741505f4e4f545f41435449564500000000000000000000000000000000006020830152604082019050919050565b6000600c82527f494e56414c49445f54494d4500000000000000000000000000000000000000006020830152604082019050919050565b6000600e82527f494e56414c49445f53454e4445520000000000000000000000000000000000006020830152604082019050919050565b6000600e82527f494e56414c49445f414d4f554e540000000000000000000000000000000000006020830152604082019050919050565b600061012083016000830151611ef86000860182611fab565b506020830151611f0b6020860182611fab565b506040830151611f1e6040860182611fab565b506060830151611f316060860182611d42565b506080830151611f446080860182611d51565b5060a0830151611f5760a0860182611cc9565b5060c0830151611f6a60c0860182611cc9565b5060e083015184820360e0860152611f828282611d96565b915050610100830151848203610100860152611f9e8282611d96565b9150508091505092915050565b611fb48161234b565b82525050565b611fc381612355565b82525050565b60006020820190508181036000830152611fe38184611cd8565b905092915050565b60006020820190506120006000830184611d33565b92915050565b600060208201905061201b6000830184611d42565b92915050565b60006040820190506120366000830185611d42565b6120436020830184611d42565b9392505050565b6000602082019050818103600083015261206381611dcc565b9050919050565b6000602082019050818103600083015261208381611e03565b9050919050565b600060208201905081810360008301526120a381611e3a565b9050919050565b600060208201905081810360008301526120c381611e71565b9050919050565b600060208201905081810360008301526120e381611ea8565b9050919050565b600060208201905081810360008301526121048184611edf565b905092915050565b600061012082019050612122600083018c611fab565b61212f602083018b611fab565b61213c604083018a611fab565b6121496060830189611d42565b6121566080830188611d51565b61216360a0830187611cc9565b61217060c0830186611cc9565b81810360e08301526121828185611d96565b90508181036101008301526121978184611d96565b90509a9950505050505050505050565b600060c0820190506121bc6000830189611fab565b6121c96020830188611fab565b6121d66040830187611fab565b6121e36060830186611d42565b81810360808301526121f58185611d60565b905081810360a08301526122098184611d60565b9050979650505050505050565b600060208201905061222b6000830184611fba565b92915050565b6000604051905081810181811067ffffffffffffffff8211171561225457600080fd5b8060405250919050565b600067ffffffffffffffff82111561227557600080fd5b602082029050602081019050919050565b600067ffffffffffffffff82111561229d57600080fd5b601f19601f8301169050602081019050919050565b6000602082019050919050565b600081519050919050565b600081519050919050565b600081519050919050565b6000602082019050919050565b60006122f88261232b565b9050919050565b60008115159050919050565b6000819050919050565b600060058210151561232357fe5b819050919050565b600073ffffffffffffffffffffffffffffffffffffffff82169050919050565b6000819050919050565b600060ff82169050919050565b600061236d8261232b565b9050919050565b6000819050919050565b6000819050919050565b600061239382612315565b9050919050565b82818337600083830152505050565b60005b838110156123c75780820151818401526020810190506123ac565b838111156123d6576000848401525b50505050565b6000601f19601f830116905091905056fea265627a7a72305820e046ff748c2eaa3724c81d3a819caf0f412e65c431d221bd9b4c6606947347c76c6578706572696d656e74616cf50037",
  "source": "pragma solidity >=0.5.0 <0.6.0;\npragma experimental ABIEncoderV2;\n\ncontract HashTimeLock {\n  mapping(bytes32 => LockContract) public contracts;\n\n  enum SwapStatus { INVALID, ACTIVE, REFUNDED, WITHDRAWN, EXPIRED }\n\n  struct LockContract {\n    uint256 inputAmount;\n    uint256 outputAmount;\n    uint256 expiration;\n    bytes32 hashLock;\n    SwapStatus status;\n    address payable sender;\n    address payable receiver;\n    string outputNetwork;\n    string outputAddress;\n  }\n\n  event Withdraw(\n    bytes32 indexed id,\n    bytes32 secret,\n    bytes32 hashLock,\n    address indexed sender,\n    address indexed receiver\n  );\n\n  event Refund(\n    bytes32 indexed id,\n    bytes32 hashLock,\n    address indexed sender,\n    address indexed receiver\n  );\n\n  event NewContract(\n    uint256 inputAmount,\n    uint256 outputAmount,\n    uint256 expiration,\n    bytes32 indexed id,\n    bytes32 hashLock,\n    address indexed sender,\n    address indexed receiver,\n    string outputNetwork,\n    string outputAddress\n  );\n\n  modifier withdrawable(bytes32 id, bytes32 secret) {\n    LockContract memory tempContract = contracts[id];\n    require(tempContract.status == SwapStatus.ACTIVE, 'SWAP_NOT_ACTIVE');\n    require(tempContract.expiration > block.timestamp, 'INVALID_TIME');\n    require(\n      tempContract.hashLock == sha256(abi.encodePacked(secret)),\n      'INVALID_SECRET'\n    );\n    _;\n  }\n\n  modifier refundable(bytes32 id) {\n    LockContract memory tempContract = contracts[id];\n    require(tempContract.status == SwapStatus.ACTIVE, 'SWAP_NOT_ACTIVE');\n    require(tempContract.expiration <= block.timestamp, 'INVALID_TIME');\n    require(tempContract.sender == msg.sender, 'INVALID_SENDER');\n    _;\n  }\n\n  function newContract(\n    uint256 outputAmount,\n    uint256 expiration,\n    bytes32 hashLock,\n    address payable receiver,\n    string memory outputNetwork,\n    string memory outputAddress\n  ) public payable {\n    address payable sender = msg.sender;\n    uint256 inputAmount = msg.value;\n\n    require(expiration > block.timestamp, 'INVALID_TIME');\n\n    require(inputAmount > 0, 'INVALID_AMOUNT');\n\n    bytes32 id = sha256(\n      abi.encodePacked(sender, receiver, inputAmount, hashLock, expiration)\n    );\n\n    contracts[id] = LockContract(\n      inputAmount,\n      outputAmount,\n      expiration,\n      hashLock,\n      SwapStatus.ACTIVE,\n      sender,\n      receiver,\n      outputNetwork,\n      outputAddress\n    );\n\n    emit NewContract(\n      inputAmount,\n      outputAmount,\n      expiration,\n      id,\n      hashLock,\n      sender,\n      receiver,\n      outputNetwork,\n      outputAddress\n    );\n  }\n\n  function withdraw(bytes32 id, bytes32 secret)\n    public\n    withdrawable(id, secret)\n    returns (bool)\n  {\n    LockContract storage c = contracts[id];\n    c.status = SwapStatus.WITHDRAWN;\n    c.receiver.transfer(c.inputAmount);\n    emit Withdraw(id, secret, c.hashLock, c.sender, c.receiver);\n    return true;\n  }\n\n  function refund(bytes32 id) external refundable(id) returns (bool) {\n    LockContract storage c = contracts[id];\n    c.status = SwapStatus.REFUNDED;\n    c.sender.transfer(c.inputAmount);\n    emit Refund(id, c.hashLock, c.sender, c.receiver);\n    return true;\n  }\n\n  function getContract(bytes32 id) public view returns (LockContract memory) {\n    LockContract memory c = contracts[id];\n    return c;\n  }\n\n  function contractExists(bytes32 id) public view returns (bool) {\n    return contracts[id].status != SwapStatus.INVALID;\n  }\n\n  function getStatus(bytes32[] memory ids)\n    public\n    view\n    returns (uint8[] memory)\n  {\n    uint8[] memory result = new uint8[](ids.length);\n\n    for (uint256 index = 0; index < ids.length; index++) {\n      result[index] = getStatus(ids[index]);\n    }\n\n    return result;\n  }\n\n  function getStatus(bytes32 id) public view returns (uint8 result) {\n    LockContract memory tempContract = contracts[id];\n\n    if (\n      tempContract.status == SwapStatus.ACTIVE &&\n      tempContract.expiration < block.timestamp\n    ) {\n      result = uint8(SwapStatus.EXPIRED);\n    } else {\n      result = uint8(tempContract.status);\n    }\n  }\n}\n",
  "sourcePath": "/home/kraykov/kraykov/dev/eth/weidex-eth-htlc/contracts/HashTimeLock.sol",
  "compiler": {
    "name": "solc",
    "version": "0.5.0+commit.1d4f565a.Emscripten.clang"
  },
  "schemaVersion": "3.0.3",
  "updatedAt": "2019-10-23T06:44:59.930Z",
  "devdoc": {
    "methods": {}
  },
  "userdoc": {
    "methods": {}
  }
}